:020000020000FC
:10000000F894E1E8F0E080818860808380818460FA
:10001000808384E294EF9093890080938800EFE6D8
:10002000F0E0808182608083789480E090E00895A1
:100030001F920F920FB60F9211242F933F934F935D
:100040005F936F937F938F939F93AF93BF93EF9340
:10005000FF938091040190910501A0910601B09158
:100060000701CC97A107B30769F78091020190912E
:100070000301019690930301809302011092040101
:100080001092050110920601109207018091020161
:1000900090910301CC9771F680910001909101013C
:1000A0000196909301018093000110920301109238
:1000B0000201809100019091010148978091100107
:1000C000909111010196909311018093100110926B
:1000D00001011092000188E091E09F938F930E94AC
:1000E0004202809111018F93809110018F930E94A1
:1000F000420280E290E00E946E02809101018F93A3
:10010000809100018F930E9442028AE390E00E9456
:100110006E02809103018F93809102018F930E9460
:1001200042028AE390E00E946E0280910401909165
:100130000501A0910601B09107019F938F930E9442
:1001400042028091040190910501A0910601B091B5
:1001500007010196A11DB11D809304019093050133
:10016000A0930601B09307018DB79EB70A960FB60C
:10017000F8949EBF0FBEFF91EF91BF91AF919F91F9
:100180008F917F916F915F914F913F912F910F9040
:080190000FBE0F901F9018959F
:00000001FF
