:100000000C943E000C945B000C945B000C945B0021
:100010000C945B000C945B000C945B000C945B00F4
:100020000C945B000C945B000C945B000C945B00E4
:100030000C945B000C945B000C945B000C945B00D4
:100040000C945B000C945B000C945B000C945B00C4
:100050000C945B000C945B000C945B000C945B00B4
:100060000C945B000C945B0066006D0073007A00DA
:100070007F0086008D0094009A00A10011241FBE0D
:10008000CFEFD8E0DEBFCDBF11E0A0E0B1E0E8E106
:10009000F4E002C005900D92A630B107D9F721E037
:1000A000A6E0B1E001C01D92AE30B207E1F70E94B8
:1000B000D9010C940A020C9400008A30910508F0D2
:1000C00046C0FC01EC5CFF4F0C9404028BB1806FC6
:1000D0008BB985B1836085B908958BB180668BB982
:1000E00085B185B908958BB1806B8BB985B1856079
:1000F00085B908958BB1806F8BB92A9A08958BB119
:1001000080668BB985B1866085B908958BB1806DA5
:100110008BB985B1866085B908958BB1806D8BB937
:1001200085B1876085B908958BB180678BB985B13A
:1001300085B908958BB1806F8BB985B1876085B91A
:1001400008958BB1806F8BB985B1866085B90895AC
:1001500020918400309185008091060190910701E3
:100160002817390759F08BB11BB885B115B82D9AEE
:1001700080910001909101010E945D00E4E8F0E0AF
:1001800080819181CE969093070180930601208112
:1001900031818217930759F08BB11BB885B115B81F
:1001A0002C9A80910201909103010E945D00E4E885
:1001B000F0E080819181CE969093070180930601B3
:1001C000208131818217930759F08BB11BB885B11B
:1001D00015B82B9A80910401909105010E945D0051
:1001E0008091840090918500CE9690930701809332
:1001F00006010895109285001092840019B880912C
:10020000040190910501019728F0909305018093D6
:100210000401089589E090E0909305018093040122
:100220008091020190910301019728F090930301BE
:1002300080930201089585E090E0909303018093FC
:1002400002018091000190910101019728F09093A3
:10025000010180930001089589E090E090930101ED
:10026000809300010895109285001092840089E027
:1002700090E0909305018093040125E030E03093F5
:1002800003012093020190930101809300010895DE
:10029000AF92BF92CF92DF92EF92FF920F931F9394
:1002A000CF93DF9310920D0110920C0110928500F4
:1002B0001092840019B8C4E8D0E06894EE24E1F804
:1002C000F12C01E010E0AE2CBF2CC02ED12E80917D
:1002D0000C0190910D01019709F460C00E94A800E3
:1002E0004A990E9433014B9B10C080910801909164
:1002F0000901019751F4E0920801F092090100937D
:100300000C0110930D01198218828881998189301E
:100310009D43E8F280910A0190910B01892BB9F677
:100320002BC080910A0190910B01892B81F24A998F
:100330000E9433014B9B10C08091080190910901EC
:10034000019751F4A0920801B0920901C0920C01EA
:10035000D0920D01198218828BB11BB885B115B8E6
:100360008881998189309D43E0F280910A019091C2
:100370000B010197B1F60BC000930801109309011E
:1003800000930A0110930B0119821882CACF1982B7
:10039000188210920B0110920A01C3CFDF91CF9106
:1003A0001F910F91FF90EF90DF90CF90BF90AF9093
:1003B00008958AB1806F8AB984B18FEF84B9E1E87A
:1003C000F0E0808185608083C4E8D0E00E94A800CE
:1003D0004A9B03C00E943301F9CF4B9B09C0809117
:1003E000080190910901892B89F70E944801EECFFD
:1003F0008881998189309D4348F3109209011092B8
:1004000008010E94FA00E2CFEE0FFF1F0590F49161
:08041000E02D0994F894FFCFE0
:06041800090005000900C7
:00000001FF
